{
  "contractName": "RocketTokenRETH",
  "abi": [
    {
      "inputs": [
        {
          "internalType": "contract RocketStorageInterface",
          "name": "_rocketStorageAddress",
          "type": "address"
        }
      ],
      "stateMutability": "nonpayable",
      "type": "constructor"
    },
    {
      "anonymous": false,
      "inputs": [
        {
          "indexed": true,
          "internalType": "address",
          "name": "owner",
          "type": "address"
        },
        {
          "indexed": true,
          "internalType": "address",
          "name": "spender",
          "type": "address"
        },
        {
          "indexed": false,
          "internalType": "uint256",
          "name": "value",
          "type": "uint256"
        }
      ],
      "name": "Approval",
      "type": "event"
    },
    {
      "anonymous": false,
      "inputs": [
        {
          "indexed": true,
          "internalType": "address",
          "name": "from",
          "type": "address"
        },
        {
          "indexed": false,
          "internalType": "uint256",
          "name": "amount",
          "type": "uint256"
        },
        {
          "indexed": false,
          "internalType": "uint256",
          "name": "time",
          "type": "uint256"
        }
      ],
      "name": "EtherDeposited",
      "type": "event"
    },
    {
      "anonymous": false,
      "inputs": [
        {
          "indexed": true,
          "internalType": "address",
          "name": "from",
          "type": "address"
        },
        {
          "indexed": false,
          "internalType": "uint256",
          "name": "amount",
          "type": "uint256"
        },
        {
          "indexed": false,
          "internalType": "uint256",
          "name": "ethAmount",
          "type": "uint256"
        },
        {
          "indexed": false,
          "internalType": "uint256",
          "name": "time",
          "type": "uint256"
        }
      ],
      "name": "TokensBurned",
      "type": "event"
    },
    {
      "anonymous": false,
      "inputs": [
        {
          "indexed": true,
          "internalType": "address",
          "name": "to",
          "type": "address"
        },
        {
          "indexed": false,
          "internalType": "uint256",
          "name": "amount",
          "type": "uint256"
        },
        {
          "indexed": false,
          "internalType": "uint256",
          "name": "ethAmount",
          "type": "uint256"
        },
        {
          "indexed": false,
          "internalType": "uint256",
          "name": "time",
          "type": "uint256"
        }
      ],
      "name": "TokensMinted",
      "type": "event"
    },
    {
      "anonymous": false,
      "inputs": [
        {
          "indexed": true,
          "internalType": "address",
          "name": "from",
          "type": "address"
        },
        {
          "indexed": true,
          "internalType": "address",
          "name": "to",
          "type": "address"
        },
        {
          "indexed": false,
          "internalType": "uint256",
          "name": "value",
          "type": "uint256"
        }
      ],
      "name": "Transfer",
      "type": "event"
    },
    {
      "inputs": [
        {
          "internalType": "address",
          "name": "owner",
          "type": "address"
        },
        {
          "internalType": "address",
          "name": "spender",
          "type": "address"
        }
      ],
      "name": "allowance",
      "outputs": [
        {
          "internalType": "uint256",
          "name": "",
          "type": "uint256"
        }
      ],
      "stateMutability": "view",
      "type": "function",
      "constant": true
    },
    {
      "inputs": [
        {
          "internalType": "address",
          "name": "spender",
          "type": "address"
        },
        {
          "internalType": "uint256",
          "name": "amount",
          "type": "uint256"
        }
      ],
      "name": "approve",
      "outputs": [
        {
          "internalType": "bool",
          "name": "",
          "type": "bool"
        }
      ],
      "stateMutability": "nonpayable",
      "type": "function"
    },
    {
      "inputs": [
        {
          "internalType": "address",
          "name": "account",
          "type": "address"
        }
      ],
      "name": "balanceOf",
      "outputs": [
        {
          "internalType": "uint256",
          "name": "",
          "type": "uint256"
        }
      ],
      "stateMutability": "view",
      "type": "function",
      "constant": true
    },
    {
      "inputs": [],
      "name": "decimals",
      "outputs": [
        {
          "internalType": "uint8",
          "name": "",
          "type": "uint8"
        }
      ],
      "stateMutability": "view",
      "type": "function",
      "constant": true
    },
    {
      "inputs": [
        {
          "internalType": "address",
          "name": "spender",
          "type": "address"
        },
        {
          "internalType": "uint256",
          "name": "subtractedValue",
          "type": "uint256"
        }
      ],
      "name": "decreaseAllowance",
      "outputs": [
        {
          "internalType": "bool",
          "name": "",
          "type": "bool"
        }
      ],
      "stateMutability": "nonpayable",
      "type": "function"
    },
    {
      "inputs": [
        {
          "internalType": "address",
          "name": "spender",
          "type": "address"
        },
        {
          "internalType": "uint256",
          "name": "addedValue",
          "type": "uint256"
        }
      ],
      "name": "increaseAllowance",
      "outputs": [
        {
          "internalType": "bool",
          "name": "",
          "type": "bool"
        }
      ],
      "stateMutability": "nonpayable",
      "type": "function"
    },
    {
      "inputs": [],
      "name": "name",
      "outputs": [
        {
          "internalType": "string",
          "name": "",
          "type": "string"
        }
      ],
      "stateMutability": "view",
      "type": "function",
      "constant": true
    },
    {
      "inputs": [],
      "name": "symbol",
      "outputs": [
        {
          "internalType": "string",
          "name": "",
          "type": "string"
        }
      ],
      "stateMutability": "view",
      "type": "function",
      "constant": true
    },
    {
      "inputs": [],
      "name": "totalSupply",
      "outputs": [
        {
          "internalType": "uint256",
          "name": "",
          "type": "uint256"
        }
      ],
      "stateMutability": "view",
      "type": "function",
      "constant": true
    },
    {
      "inputs": [
        {
          "internalType": "address",
          "name": "recipient",
          "type": "address"
        },
        {
          "internalType": "uint256",
          "name": "amount",
          "type": "uint256"
        }
      ],
      "name": "transfer",
      "outputs": [
        {
          "internalType": "bool",
          "name": "",
          "type": "bool"
        }
      ],
      "stateMutability": "nonpayable",
      "type": "function"
    },
    {
      "inputs": [
        {
          "internalType": "address",
          "name": "sender",
          "type": "address"
        },
        {
          "internalType": "address",
          "name": "recipient",
          "type": "address"
        },
        {
          "internalType": "uint256",
          "name": "amount",
          "type": "uint256"
        }
      ],
      "name": "transferFrom",
      "outputs": [
        {
          "internalType": "bool",
          "name": "",
          "type": "bool"
        }
      ],
      "stateMutability": "nonpayable",
      "type": "function"
    },
    {
      "inputs": [],
      "name": "version",
      "outputs": [
        {
          "internalType": "uint8",
          "name": "",
          "type": "uint8"
        }
      ],
      "stateMutability": "view",
      "type": "function",
      "constant": true
    },
    {
      "stateMutability": "payable",
      "type": "receive",
      "payable": true
    },
    {
      "inputs": [
        {
          "internalType": "uint256",
          "name": "_rethAmount",
          "type": "uint256"
        }
      ],
      "name": "getEthValue",
      "outputs": [
        {
          "internalType": "uint256",
          "name": "",
          "type": "uint256"
        }
      ],
      "stateMutability": "view",
      "type": "function",
      "constant": true
    },
    {
      "inputs": [
        {
          "internalType": "uint256",
          "name": "_ethAmount",
          "type": "uint256"
        }
      ],
      "name": "getRethValue",
      "outputs": [
        {
          "internalType": "uint256",
          "name": "",
          "type": "uint256"
        }
      ],
      "stateMutability": "view",
      "type": "function",
      "constant": true
    },
    {
      "inputs": [],
      "name": "getExchangeRate",
      "outputs": [
        {
          "internalType": "uint256",
          "name": "",
          "type": "uint256"
        }
      ],
      "stateMutability": "view",
      "type": "function",
      "constant": true
    },
    {
      "inputs": [],
      "name": "getTotalCollateral",
      "outputs": [
        {
          "internalType": "uint256",
          "name": "",
          "type": "uint256"
        }
      ],
      "stateMutability": "view",
      "type": "function",
      "constant": true
    },
    {
      "inputs": [],
      "name": "getCollateralRate",
      "outputs": [
        {
          "internalType": "uint256",
          "name": "",
          "type": "uint256"
        }
      ],
      "stateMutability": "view",
      "type": "function",
      "constant": true
    },
    {
      "inputs": [],
      "name": "depositExcess",
      "outputs": [],
      "stateMutability": "payable",
      "type": "function",
      "payable": true
    },
    {
      "inputs": [
        {
          "internalType": "uint256",
          "name": "_ethAmount",
          "type": "uint256"
        },
        {
          "internalType": "address",
          "name": "_to",
          "type": "address"
        }
      ],
      "name": "mint",
      "outputs": [],
      "stateMutability": "nonpayable",
      "type": "function"
    },
    {
      "inputs": [
        {
          "internalType": "uint256",
          "name": "_rethAmount",
          "type": "uint256"
        }
      ],
      "name": "burn",
      "outputs": [],
      "stateMutability": "nonpayable",
      "type": "function"
    },
    {
      "inputs": [],
      "name": "depositExcessCollateral",
      "outputs": [],
      "stateMutability": "nonpayable",
      "type": "function"
    }
  ],
  "bytecode": "0x608060405260008054610100600160a81b03191690553480156200002257600080fd5b506040516200241838038062002418833981810160405260208110156200004857600080fd5b5051604080518082018252600f81526e0a4dec6d6cae840a0deded8408aa89608b1b602080830191825283518085019094526004808552630e48aa8960e31b9185019190915260008054610100600160a81b0319166101006001600160a01b038816021790558251929392620000bf9290620000fc565b508051620000d5906005906020840190620000fc565b50506006805460ff1990811660121790915560008054909116600117905550620001a89050565b828054600181600116156101000203166002900490600052602060002090601f0160209004810192826200013457600085556200017f565b82601f106200014f57805160ff19168380011785556200017f565b828001600101855582156200017f579182015b828111156200017f57825182559160200191906001019062000162565b506200018d92915062000191565b5090565b5b808211156200018d576000815560010162000192565b61226080620001b86000396000f3fe60806040526004361061016e5760003560e01c80636c985a88116100cb57806395d89b411161007f578063d6eb591011610059578063d6eb59101461056d578063dd62ed3e14610582578063e6aa216c146105ca576101ae565b806395d89b41146104cc578063a457c2d7146104e1578063a9059cbb14610527576101ae565b8063852185fc116100b0578063852185fc146104475780638b32fa231461045c57806394bf804d14610486576101ae565b80636c985a88146103ff57806370a0823114610407576101ae565b8063313ce5671161012257806342966c681161010757806342966c68146103965780634346f03e146103c057806354fd4d50146103ea576101ae565b8063313ce567146103255780633950935114610350576101ae565b806318160ddd1161015357806318160ddd14610297578063188e0dc6146102be57806323b872dd146102d5576101ae565b806306fdde03146101b3578063095ea7b31461023d576101ae565b366101ae5760408051348152426020820152815133927fef51b4c870b8b0100eae2072e91db01222a303072af3728e58c9d4d2da33127f928290030190a2005b600080fd5b3480156101bf57600080fd5b506101c86105df565b6040805160208082528351818301528351919283929083019185019080838360005b838110156102025781810151838201526020016101ea565b50505050905090810190601f16801561022f5780820380516001836020036101000a031916815260200191505b509250505060405180910390f35b34801561024957600080fd5b506102836004803603604081101561026057600080fd5b5073ffffffffffffffffffffffffffffffffffffffff8135169060200135610694565b604080519115158252519081900360200190f35b3480156102a357600080fd5b506102ac6106b2565b60408051918252519081900360200190f35b3480156102ca57600080fd5b506102d36106b8565b005b3480156102e157600080fd5b50610283600480360360608110156102f857600080fd5b5073ffffffffffffffffffffffffffffffffffffffff81358116916020810135909116906040013561085f565b34801561033157600080fd5b5061033a610900565b6040805160ff9092168252519081900360200190f35b34801561035c57600080fd5b506102836004803603604081101561037357600080fd5b5073ffffffffffffffffffffffffffffffffffffffff8135169060200135610909565b3480156103a257600080fd5b506102d3600480360360208110156103b957600080fd5b5035610964565b3480156103cc57600080fd5b506102ac600480360360208110156103e357600080fd5b5035610af6565b3480156103f657600080fd5b5061033a610caf565b6102d3610cb8565b34801561041357600080fd5b506102ac6004803603602081101561042a57600080fd5b503573ffffffffffffffffffffffffffffffffffffffff16610e67565b34801561045357600080fd5b506102ac610e8f565b34801561046857600080fd5b506102ac6004803603602081101561047f57600080fd5b5035610ed6565b34801561049257600080fd5b506102d3600480360360408110156104a957600080fd5b508035906020013573ffffffffffffffffffffffffffffffffffffffff16611045565b3480156104d857600080fd5b506101c8611241565b3480156104ed57600080fd5b506102836004803603604081101561050457600080fd5b5073ffffffffffffffffffffffffffffffffffffffff81351690602001356112c0565b34801561053357600080fd5b506102836004803603604081101561054a57600080fd5b5073ffffffffffffffffffffffffffffffffffffffff8135169060200135611335565b34801561057957600080fd5b506102ac611349565b34801561058e57600080fd5b506102ac600480360360408110156105a557600080fd5b5073ffffffffffffffffffffffffffffffffffffffff81358116916020013516611408565b3480156105d657600080fd5b506102ac611440565b60048054604080516020601f60027fffffffffffffffffffffffffffffffffffffffffffffffffffffffffffffffff6101006001881615020190951694909404938401819004810282018101909252828152606093909290918301828280156106895780601f1061065e57610100808354040283529160200191610689565b820191906000526020600020905b81548152906001019060200180831161066c57829003601f168201915b505050505090505b90565b60006106a86106a1611458565b848461145c565b5060015b92915050565b60035490565b60006106f86040518060400160405280602081526020017f726f636b657444414f50726f746f636f6c53657474696e67734e6574776f726b81525061156f565b9050600061073a6040518060400160405280601181526020017f726f636b65744465706f736974506f6f6c00000000000000000000000000000081525061156f565b90506000610746610e8f565b905060008373ffffffffffffffffffffffffffffffffffffffff1663e28767136040518163ffffffff1660e01b815260040160206040518083038186803b15801561079057600080fd5b505afa1580156107a4573d6000803e3d6000fd5b505050506040513d60208110156107ba57600080fd5b50519050808211156108595760006107dc836107d64785611657565b906116b7565b9050804711156108575760006107f2478361171e565b90508473ffffffffffffffffffffffffffffffffffffffff1663db82047b826040518263ffffffff1660e01b81526004016000604051808303818588803b15801561083c57600080fd5b505af1158015610850573d6000803e3d6000fd5b5050505050505b505b50505050565b600061086c84848461177b565b6108f684610878611458565b6108f18560405180606001604052806028815260200161212e6028913973ffffffffffffffffffffffffffffffffffffffff8a166000908152600260205260408120906108c3611458565b73ffffffffffffffffffffffffffffffffffffffff1681526020810191909152604001600020549190611919565b61145c565b5060019392505050565b60065460ff1690565b60006106a8610916611458565b846108f18560026000610927611458565b73ffffffffffffffffffffffffffffffffffffffff908116825260208083019390935260409182016000908120918c1681529252902054906119b0565b600081116109b9576040805162461bcd60e51b815260206004820152601960248201527f496e76616c696420746f6b656e206275726e20616d6f756e7400000000000000604482015290519081900360640190fd5b806109c333610e67565b1015610a16576040805162461bcd60e51b815260206004820152601960248201527f496e73756666696369656e7420724554482062616c616e636500000000000000604482015290519081900360640190fd5b6000610a2182610ed6565b90506000610a2d611349565b905081811015610a6e5760405162461bcd60e51b81526004018080602001828103825260258152602001806120566025913960400191505060405180910390fd5b610a783384611a0a565b610a8182611b3a565b604051339083156108fc029084906000818181858888f19350505050158015610aae573d6000803e3d6000fd5b5060408051848152602081018490524281830152905133917f19783b34589160c168487dc7f9c51ae0bcefe67a47d6708fba90f6ce0366d3d1919081900360600190a2505050565b600080610b376040518060400160405280601581526020017f726f636b65744e6574776f726b42616c616e636573000000000000000000000081525061156f565b905060008173ffffffffffffffffffffffffffffffffffffffff1663964d042c6040518163ffffffff1660e01b815260040160206040518083038186803b158015610b8157600080fd5b505afa158015610b95573d6000803e3d6000fd5b505050506040513d6020811015610bab57600080fd5b5051604080517fc4c8d0ad000000000000000000000000000000000000000000000000000000008152905191925060009173ffffffffffffffffffffffffffffffffffffffff85169163c4c8d0ad916004808301926020929190829003018186803b158015610c1957600080fd5b505afa158015610c2d573d6000803e3d6000fd5b505050506040513d6020811015610c4357600080fd5b5051905080610c5757849350505050610caa565b60008211610c965760405162461bcd60e51b81526004018080602001828103825260468152602001806121c06046913960600191505060405180910390fd5b610ca4826107d68784611657565b93505050505b919050565b60005460ff1681565b6040518060400160405280601181526020017f726f636b65744465706f736974506f6f6c00000000000000000000000000000081525033610dab8260405160200180807f636f6e74726163742e616464726573730000000000000000000000000000000081525060100182805190602001908083835b60208310610d6b57805182527fffffffffffffffffffffffffffffffffffffffffffffffffffffffffffffffe09092019160209182019101610d2e565b6001836020036101000a03801982511681845116808217855250505050505090500191505060405160208183030381529060405280519060200120611c04565b73ffffffffffffffffffffffffffffffffffffffff168173ffffffffffffffffffffffffffffffffffffffff1614610e2a576040805162461bcd60e51b815260206004820152601c60248201527f496e76616c6964206f72206f7574646174656420636f6e747261637400000000604482015290519081900360640190fd5b60408051348152426020820152815133927fef51b4c870b8b0100eae2072e91db01222a303072af3728e58c9d4d2da33127f928290030190a25050565b73ffffffffffffffffffffffffffffffffffffffff1660009081526001602052604090205490565b600080610ea2610e9d6106b2565b610ed6565b905080610eba57670de0b6b3a7640000915050610691565b610ed0816107d6670de0b6b3a764000047611657565b91505090565b600080610f176040518060400160405280601581526020017f726f636b65744e6574776f726b42616c616e636573000000000000000000000081525061156f565b905060008173ffffffffffffffffffffffffffffffffffffffff1663964d042c6040518163ffffffff1660e01b815260040160206040518083038186803b158015610f6157600080fd5b505afa158015610f75573d6000803e3d6000fd5b505050506040513d6020811015610f8b57600080fd5b5051604080517fc4c8d0ad000000000000000000000000000000000000000000000000000000008152905191925060009173ffffffffffffffffffffffffffffffffffffffff85169163c4c8d0ad916004808301926020929190829003018186803b158015610ff957600080fd5b505afa15801561100d573d6000803e3d6000fd5b505050506040513d602081101561102357600080fd5b505190508061103757849350505050610caa565b610ca4816107d68785611657565b6040518060400160405280601181526020017f726f636b65744465706f736974506f6f6c000000000000000000000000000000815250336110f78260405160200180807f636f6e74726163742e6164647265737300000000000000000000000000000000815250601001828051906020019080838360208310610d6b57805182527fffffffffffffffffffffffffffffffffffffffffffffffffffffffffffffffe09092019160209182019101610d2e565b73ffffffffffffffffffffffffffffffffffffffff168173ffffffffffffffffffffffffffffffffffffffff1614611176576040805162461bcd60e51b815260206004820152601c60248201527f496e76616c6964206f72206f7574646174656420636f6e747261637400000000604482015290519081900360640190fd5b600061118185610af6565b9050600081116111d8576040805162461bcd60e51b815260206004820152601960248201527f496e76616c696420746f6b656e206d696e7420616d6f756e7400000000000000604482015290519081900360640190fd5b6111e28482611caa565b60408051828152602081018790524281830152905173ffffffffffffffffffffffffffffffffffffffff8616917f6155cfd0fd028b0ca77e8495a60cbe563e8bce8611f0aad6fedbdaafc05d44a2919081900360600190a25050505050565b60058054604080516020601f60027fffffffffffffffffffffffffffffffffffffffffffffffffffffffffffffffff6101006001881615020190951694909404938401819004810282018101909252828152606093909290918301828280156106895780601f1061065e57610100808354040283529160200191610689565b60006106a86112cd611458565b846108f18560405180606001604052806025815260200161220660259139600260006112f7611458565b73ffffffffffffffffffffffffffffffffffffffff908116825260208083019390935260409182016000908120918d16815292529020549190611919565b60006106a8611342611458565b848461177b565b60008061138a6040518060400160405280601181526020017f726f636b65744465706f736974506f6f6c00000000000000000000000000000081525061156f565b9050610ed0478273ffffffffffffffffffffffffffffffffffffffff1663888b042f6040518163ffffffff1660e01b815260040160206040518083038186803b1580156113d657600080fd5b505afa1580156113ea573d6000803e3d6000fd5b505050506040513d602081101561140057600080fd5b5051906119b0565b73ffffffffffffffffffffffffffffffffffffffff918216600090815260026020908152604080832093909416825291909152205490565b6000611453670de0b6b3a7640000610ed6565b905090565b3390565b73ffffffffffffffffffffffffffffffffffffffff83166114ae5760405162461bcd60e51b815260040180806020018281038252602481526020018061219c6024913960400191505060405180910390fd5b73ffffffffffffffffffffffffffffffffffffffff82166115005760405162461bcd60e51b815260040180806020018281038252602281526020018061209d6022913960400191505060405180910390fd5b73ffffffffffffffffffffffffffffffffffffffff808416600081815260026020908152604080832094871680845294825291829020859055815185815291517f8c5be1e5ebec7d5bd14f71427d1e84f3dd0314c0f7b2291e5b200ac8c7c3b9259281900390910190a3505050565b6000806115ed8360405160200180807f636f6e74726163742e6164647265737300000000000000000000000000000000815250601001828051906020019080838360208310610d6b57805182527fffffffffffffffffffffffffffffffffffffffffffffffffffffffffffffffe09092019160209182019101610d2e565b905073ffffffffffffffffffffffffffffffffffffffff81166106ac576040805162461bcd60e51b815260206004820152601260248201527f436f6e7472616374206e6f7420666f756e640000000000000000000000000000604482015290519081900360640190fd5b600082611666575060006106ac565b8282028284828161167357fe5b04146116b05760405162461bcd60e51b815260040180806020018281038252602181526020018061210d6021913960400191505060405180910390fd5b9392505050565b600080821161170d576040805162461bcd60e51b815260206004820152601a60248201527f536166654d6174683a206469766973696f6e206279207a65726f000000000000604482015290519081900360640190fd5b81838161171657fe5b049392505050565b600082821115611775576040805162461bcd60e51b815260206004820152601e60248201527f536166654d6174683a207375627472616374696f6e206f766572666c6f770000604482015290519081900360640190fd5b50900390565b73ffffffffffffffffffffffffffffffffffffffff83166117cd5760405162461bcd60e51b81526004018080602001828103825260258152602001806121776025913960400191505060405180910390fd5b73ffffffffffffffffffffffffffffffffffffffff821661181f5760405162461bcd60e51b81526004018080602001828103825260238152602001806120336023913960400191505060405180910390fd5b61182a838383611dc3565b611874816040518060600160405280602681526020016120bf6026913973ffffffffffffffffffffffffffffffffffffffff86166000908152600160205260409020549190611919565b73ffffffffffffffffffffffffffffffffffffffff80851660009081526001602052604080822093909355908416815220546118b090826119b0565b73ffffffffffffffffffffffffffffffffffffffff80841660008181526001602090815260409182902094909455805185815290519193928716927fddf252ad1be2c89b69c2b068fc378daa952ba7f163c4a11628f55a4df523b3ef92918290030190a3505050565b600081848411156119a85760405162461bcd60e51b81526004018080602001828103825283818151815260200191508051906020019080838360005b8381101561196d578181015183820152602001611955565b50505050905090810190601f16801561199a5780820380516001836020036101000a031916815260200191505b509250505060405180910390fd5b505050900390565b6000828201838110156116b0576040805162461bcd60e51b815260206004820152601b60248201527f536166654d6174683a206164646974696f6e206f766572666c6f770000000000604482015290519081900360640190fd5b73ffffffffffffffffffffffffffffffffffffffff8216611a5c5760405162461bcd60e51b81526004018080602001828103825260218152602001806121566021913960400191505060405180910390fd5b611a6882600083611dc3565b611ab28160405180606001604052806022815260200161207b6022913973ffffffffffffffffffffffffffffffffffffffff85166000908152600160205260409020549190611919565b73ffffffffffffffffffffffffffffffffffffffff8316600090815260016020526040902055600354611ae5908261171e565b60035560408051828152905160009173ffffffffffffffffffffffffffffffffffffffff8516917fddf252ad1be2c89b69c2b068fc378daa952ba7f163c4a11628f55a4df523b3ef9181900360200190a35050565b47818110611b485750611c01565b6000611b886040518060400160405280601181526020017f726f636b65744465706f736974506f6f6c00000000000000000000000000000081525061156f565b905073ffffffffffffffffffffffffffffffffffffffff81166363a5db9e611bb0858561171e565b6040518263ffffffff1660e01b815260040180828152602001915050600060405180830381600087803b158015611be657600080fd5b505af1158015611bfa573d6000803e3d6000fd5b5050505050505b50565b60008060019054906101000a900473ffffffffffffffffffffffffffffffffffffffff1673ffffffffffffffffffffffffffffffffffffffff166321f8a721836040518263ffffffff1660e01b81526004018082815260200191505060206040518083038186803b158015611c7857600080fd5b505afa158015611c8c573d6000803e3d6000fd5b505050506040513d6020811015611ca257600080fd5b505192915050565b73ffffffffffffffffffffffffffffffffffffffff8216611d12576040805162461bcd60e51b815260206004820152601f60248201527f45524332303a206d696e7420746f20746865207a65726f206164647265737300604482015290519081900360640190fd5b611d1e60008383611dc3565b600354611d2b90826119b0565b60035573ffffffffffffffffffffffffffffffffffffffff8216600090815260016020526040902054611d5e90826119b0565b73ffffffffffffffffffffffffffffffffffffffff831660008181526001602090815260408083209490945583518581529351929391927fddf252ad1be2c89b69c2b068fc378daa952ba7f163c4a11628f55a4df523b3ef9281900390910190a35050565b73ffffffffffffffffffffffffffffffffffffffff831615611f3357604080517f757365722e6465706f7369742e626c6f636b00000000000000000000000000006020808301919091527fffffffffffffffffffffffffffffffffffffffff000000000000000000000000606087901b16603283015282516026818403018152604690920190925280519101206000611e5b82611f38565b90508015610857576000611edc7f7cb36cfba78818e097a3d983f102f9107317663854a5d185ea320a1e1a7da21560405160200180828152602001807f6e6574776f726b2e726574682e6465706f7369742e64656c6179000000000000815250601a0191505060405160208183030381529060405280519060200120611f38565b90506000611eea438461171e565b9050818111611f2a5760405162461bcd60e51b81526004018080602001828103825260288152602001806120e56028913960400191505060405180910390fd5b611bfa84611fac565b505050565b60008060019054906101000a900473ffffffffffffffffffffffffffffffffffffffff1673ffffffffffffffffffffffffffffffffffffffff1663bd02d0f5836040518263ffffffff1660e01b81526004018082815260200191505060206040518083038186803b158015611c7857600080fd5b60008054604080517fe2b202bf00000000000000000000000000000000000000000000000000000000815260048101859052905161010090920473ffffffffffffffffffffffffffffffffffffffff169263e2b202bf9260248084019382900301818387803b15801561201e57600080fd5b505af1158015610857573d6000803e3d6000fdfe45524332303a207472616e7366657220746f20746865207a65726f2061646472657373496e73756666696369656e74204554482062616c616e636520666f722065786368616e676545524332303a206275726e20616d6f756e7420657863656564732062616c616e636545524332303a20617070726f766520746f20746865207a65726f206164647265737345524332303a207472616e7366657220616d6f756e7420657863656564732062616c616e63654e6f7420656e6f7567682074696d6520686173207061737365642073696e6365206465706f736974536166654d6174683a206d756c7469706c69636174696f6e206f766572666c6f7745524332303a207472616e7366657220616d6f756e74206578636565647320616c6c6f77616e636545524332303a206275726e2066726f6d20746865207a65726f206164647265737345524332303a207472616e736665722066726f6d20746865207a65726f206164647265737345524332303a20617070726f76652066726f6d20746865207a65726f206164647265737343616e6e6f742063616c63756c617465207245544820746f6b656e20616d6f756e74207768696c6520746f74616c206e6574776f726b2062616c616e6365206973207a65726f45524332303a2064656372656173656420616c6c6f77616e63652062656c6f77207a65726fa26469706673582212205a28be4fcc53ccd2efba1606480b70dfaf30afcd114e556e4547176880794b3664736f6c63430007060033",
  "immutableReferences": {},
  "source": "pragma solidity 0.7.6;\n\n// SPDX-License-Identifier: GPL-3.0-only\n\nimport \"@openzeppelin/contracts/token/ERC20/ERC20.sol\";\n\nimport \"../RocketBase.sol\";\nimport \"../../interface/deposit/RocketDepositPoolInterface.sol\";\nimport \"../../interface/network/RocketNetworkBalancesInterface.sol\";\nimport \"../../interface/token/RocketTokenRETHInterface.sol\";\nimport \"../../interface/dao/protocol/settings/RocketDAOProtocolSettingsNetworkInterface.sol\";\n\n// rETH is a tokenised stake in the Rocket Pool network\n// rETH is backed by ETH (subject to liquidity) at a variable exchange rate\n\ncontract RocketTokenRETH is RocketBase, ERC20, RocketTokenRETHInterface {\n\n    // Libs\n    using SafeMath for uint;\n\n    // Events\n    event EtherDeposited(address indexed from, uint256 amount, uint256 time);\n    event TokensMinted(address indexed to, uint256 amount, uint256 ethAmount, uint256 time);\n    event TokensBurned(address indexed from, uint256 amount, uint256 ethAmount, uint256 time);\n\n    // Construct with our token details\n    constructor(RocketStorageInterface _rocketStorageAddress) RocketBase(_rocketStorageAddress) ERC20(\"Rocket Pool ETH\", \"rETH\") {\n        // Version\n        version = 1;\n    }\n\n    // Receive an ETH deposit from a minipool or generous individual\n    receive() external payable {\n        // Emit ether deposited event\n        emit EtherDeposited(msg.sender, msg.value, block.timestamp);\n    }\n\n    // Calculate the amount of ETH backing an amount of rETH\n    function getEthValue(uint256 _rethAmount) override public view returns (uint256) {\n        // Get network balances\n        RocketNetworkBalancesInterface rocketNetworkBalances = RocketNetworkBalancesInterface(getContractAddress(\"rocketNetworkBalances\"));\n        uint256 totalEthBalance = rocketNetworkBalances.getTotalETHBalance();\n        uint256 rethSupply = rocketNetworkBalances.getTotalRETHSupply();\n        // Use 1:1 ratio if no rETH is minted\n        if (rethSupply == 0) { return _rethAmount; }\n        // Calculate and return\n        return _rethAmount.mul(totalEthBalance).div(rethSupply);\n    }\n\n    // Calculate the amount of rETH backed by an amount of ETH\n    function getRethValue(uint256 _ethAmount) override public view returns (uint256) {\n        // Get network balances\n        RocketNetworkBalancesInterface rocketNetworkBalances = RocketNetworkBalancesInterface(getContractAddress(\"rocketNetworkBalances\"));\n        uint256 totalEthBalance = rocketNetworkBalances.getTotalETHBalance();\n        uint256 rethSupply = rocketNetworkBalances.getTotalRETHSupply();\n        // Use 1:1 ratio if no rETH is minted\n        if (rethSupply == 0) { return _ethAmount; }\n        // Check network ETH balance\n        require(totalEthBalance > 0, \"Cannot calculate rETH token amount while total network balance is zero\");\n        // Calculate and return\n        return _ethAmount.mul(rethSupply).div(totalEthBalance);\n    }\n\n    // Get the current ETH : rETH exchange rate\n    // Returns the amount of ETH backing 1 rETH\n    function getExchangeRate() override external view returns (uint256) {\n        return getEthValue(1 ether);\n    }\n\n    // Get the total amount of collateral available\n    // Includes rETH contract balance & excess deposit pool balance\n    function getTotalCollateral() override public view returns (uint256) {\n        RocketDepositPoolInterface rocketDepositPool = RocketDepositPoolInterface(getContractAddress(\"rocketDepositPool\"));\n        return rocketDepositPool.getExcessBalance().add(address(this).balance);\n    }\n\n    // Get the current ETH collateral rate\n    // Returns the portion of rETH backed by ETH in the contract as a fraction of 1 ether\n    function getCollateralRate() override public view returns (uint256) {\n        uint256 totalEthValue = getEthValue(totalSupply());\n        if (totalEthValue == 0) { return calcBase; }\n        return calcBase.mul(address(this).balance).div(totalEthValue);\n    }\n\n    // Deposit excess ETH from deposit pool\n    // Only accepts calls from the RocketDepositPool contract\n    function depositExcess() override external payable onlyLatestContract(\"rocketDepositPool\", msg.sender) {\n        // Emit ether deposited event\n        emit EtherDeposited(msg.sender, msg.value, block.timestamp);\n    }\n\n    // Mint rETH\n    // Only accepts calls from the RocketDepositPool contract\n    function mint(uint256 _ethAmount, address _to) override external onlyLatestContract(\"rocketDepositPool\", msg.sender) {\n        // Get rETH amount\n        uint256 rethAmount = getRethValue(_ethAmount);\n        // Check rETH amount\n        require(rethAmount > 0, \"Invalid token mint amount\");\n        // Update balance & supply\n        _mint(_to, rethAmount);\n        // Emit tokens minted event\n        emit TokensMinted(_to, rethAmount, _ethAmount, block.timestamp);\n    }\n\n    // Burn rETH for ETH\n    function burn(uint256 _rethAmount) override external {\n        // Check rETH amount\n        require(_rethAmount > 0, \"Invalid token burn amount\");\n        require(balanceOf(msg.sender) >= _rethAmount, \"Insufficient rETH balance\");\n        // Get ETH amount\n        uint256 ethAmount = getEthValue(_rethAmount);\n        // Get & check ETH balance\n        uint256 ethBalance = getTotalCollateral();\n        require(ethBalance >= ethAmount, \"Insufficient ETH balance for exchange\");\n        // Update balance & supply\n        _burn(msg.sender, _rethAmount);\n        // Withdraw ETH from deposit pool if required\n        withdrawDepositCollateral(ethAmount);\n        // Transfer ETH to sender\n        msg.sender.transfer(ethAmount);\n        // Emit tokens burned event\n        emit TokensBurned(msg.sender, _rethAmount, ethAmount, block.timestamp);\n    }\n\n    // Withdraw ETH from the deposit pool for collateral if required\n    function withdrawDepositCollateral(uint256 _ethRequired) private {\n        // Check rETH contract balance\n        uint256 ethBalance = address(this).balance;\n        if (ethBalance >= _ethRequired) { return; }\n        // Withdraw\n        RocketDepositPoolInterface rocketDepositPool = RocketDepositPoolInterface(getContractAddress(\"rocketDepositPool\"));\n        rocketDepositPool.withdrawExcessBalance(_ethRequired.sub(ethBalance));\n    }\n\n    // Sends any excess ETH from this contract to the deposit pool (as determined by target collateral rate)\n    function depositExcessCollateral() external override {\n        // Load contracts\n        RocketDAOProtocolSettingsNetworkInterface rocketDAOProtocolSettingsNetwork = RocketDAOProtocolSettingsNetworkInterface(getContractAddress(\"rocketDAOProtocolSettingsNetwork\"));\n        RocketDepositPoolInterface rocketDepositPool = RocketDepositPoolInterface(getContractAddress(\"rocketDepositPool\"));\n        // Get collateral and target collateral rate\n        uint256 collateralRate = getCollateralRate();\n        uint256 targetCollateralRate = rocketDAOProtocolSettingsNetwork.getTargetRethCollateralRate();\n        // Check if we are in excess\n        if (collateralRate > targetCollateralRate) {\n            // Calculate our target collateral in ETH\n            uint256 targetCollateral = address(this).balance.mul(targetCollateralRate).div(collateralRate);\n            // If we have excess\n            if (address(this).balance > targetCollateral) {\n                // Send that excess to deposit pool\n                uint256 excessCollateral = address(this).balance.sub(targetCollateral);\n                rocketDepositPool.recycleExcessCollateral{value: excessCollateral}();\n            }\n        }\n    }\n\n    // This is called by the base ERC20 contract before all transfer, mint, and burns\n    function _beforeTokenTransfer(address from, address, uint256) internal override {\n        // Don't run check if this is a mint transaction\n        if (from != address(0)) {\n            // Check which block the user's last deposit was\n            bytes32 key = keccak256(abi.encodePacked(\"user.deposit.block\", from));\n            uint256 lastDepositBlock = getUint(key);\n            if (lastDepositBlock > 0) {\n                // Ensure enough blocks have passed\n                uint256 depositDelay = getUint(keccak256(abi.encodePacked(keccak256(\"dao.protocol.setting.network\"), \"network.reth.deposit.delay\")));\n                uint256 blocksPassed = block.number.sub(lastDepositBlock);\n                require(blocksPassed > depositDelay, \"Not enough time has passed since deposit\");\n                // Clear the state as it's no longer necessary to check this until another deposit is made\n                deleteUint(key);\n            }\n        }\n    }\n}\n",
  "sourcePath": "/home/dave/Git/Ethereum/RocketPool/Contracts/contracts/contract/token/RocketTokenRETH.sol",
  "compiler": {
    "name": "solc",
    "version": "0.7.6+commit.7338295f.Emscripten.clang"
  },
  "schemaVersion": "3.4.1",
  "updatedAt": "2021-09-30T06:43:28.565Z",
  "networkType": "ethereum",
  "devdoc": {
    "kind": "dev",
    "methods": {
      "allowance(address,address)": {
        "details": "See {IERC20-allowance}."
      },
      "approve(address,uint256)": {
        "details": "See {IERC20-approve}. Requirements: - `spender` cannot be the zero address."
      },
      "balanceOf(address)": {
        "details": "See {IERC20-balanceOf}."
      },
      "decimals()": {
        "details": "Returns the number of decimals used to get its user representation. For example, if `decimals` equals `2`, a balance of `505` tokens should be displayed to a user as `5,05` (`505 / 10 ** 2`). Tokens usually opt for a value of 18, imitating the relationship between Ether and Wei. This is the value {ERC20} uses, unless {_setupDecimals} is called. NOTE: This information is only used for _display_ purposes: it in no way affects any of the arithmetic of the contract, including {IERC20-balanceOf} and {IERC20-transfer}."
      },
      "decreaseAllowance(address,uint256)": {
        "details": "Atomically decreases the allowance granted to `spender` by the caller. This is an alternative to {approve} that can be used as a mitigation for problems described in {IERC20-approve}. Emits an {Approval} event indicating the updated allowance. Requirements: - `spender` cannot be the zero address. - `spender` must have allowance for the caller of at least `subtractedValue`."
      },
      "increaseAllowance(address,uint256)": {
        "details": "Atomically increases the allowance granted to `spender` by the caller. This is an alternative to {approve} that can be used as a mitigation for problems described in {IERC20-approve}. Emits an {Approval} event indicating the updated allowance. Requirements: - `spender` cannot be the zero address."
      },
      "name()": {
        "details": "Returns the name of the token."
      },
      "symbol()": {
        "details": "Returns the symbol of the token, usually a shorter version of the name."
      },
      "totalSupply()": {
        "details": "See {IERC20-totalSupply}."
      },
      "transfer(address,uint256)": {
        "details": "See {IERC20-transfer}. Requirements: - `recipient` cannot be the zero address. - the caller must have a balance of at least `amount`."
      },
      "transferFrom(address,address,uint256)": {
        "details": "See {IERC20-transferFrom}. Emits an {Approval} event indicating the updated allowance. This is not required by the EIP. See the note at the beginning of {ERC20}. Requirements: - `sender` and `recipient` cannot be the zero address. - `sender` must have a balance of at least `amount`. - the caller must have allowance for ``sender``'s tokens of at least `amount`."
      }
    },
    "version": 1
  },
  "userdoc": {
    "kind": "user",
    "methods": {},
    "version": 1
  }
}